:020000040000FA
:040000008031E5283E
:100008007E1480310B1D09280A2810280130200091
:10001800B8070030B93D0B112000901C1428152892
:100028001A280130F0070030F13D90100B1C1D28F4
:100038001E28E3282700991D222823284A28200063
:10004800481C272828283F28181008301702343061
:100058000319160203183128322836281708F50024
:100068001608F400F730F60076082700980597156B
:10007800200048104A28181496019701F730F60016
:100088007608270097059815200048142700191EA0
:100098004E284F2877282000C81C532854286A283F
:1000A80029001510EF30F600760827009805171676
:1000B80009302900140203186228632867281408E5
:1000C800F3001308F2002000C8107728270018163C
:1000D800EF30F60076089705290093019401930103
:1000E80015142000C8142700991E7B287C28A628F0
:1000F8002000481D802881289A2829001C10DF30FC
:10010800F6007608270098059716093029001B0283
:1001180003188F28902897281B082000BF00290063
:100128001A082000BE0020004811A62827009816AB
:10013800DF30F6007608970529009A019B011C1408
:10014800200048152700191FAA28AB28E0282000FE
:10015800C81DAF28B028D4289C13BF30F6007608F5
:10016800270098051717003071020930031970022B
:100178000318BF28C028D12820001A08F600F70164
:100188007008F900F80176087804FA00770879040D
:10019800FB007A08BC007B08BD002000C811E028DD
:1001A80027001817BF30F6007608970520009A0137
:1001B800F001F1019C17C815270099010B107E105A
:1001C80009008031E728F001F101F201F301F4019F
:1001D800F50120308400003085002A308431BB24AA
:1001E80080317E1020008031F928210019088739D4
:1001F80070389900FC3099051A1F03290429002931
:100208008B178B150B1790148B16783027009700D7
:100218002100951295111508F839023895003F30DC
:1002280020009805303098043F302900950530307B
:1002380095043F309C0530309C0420009E011C082A
:100248008F3930389C00F0309C059D170F309F0087
:10025800240095161508F0390838950013309200D7
:1002680011303D009C0010309E000C303C00A10075
:100278000E30A00023008C018D018E0121008C011D
:1002880050308D0025000D160D17783021008E0096
:100298002000C9018331CB23803122008E13E8303E
:1002A8002000BE000330BF00B801B9019501B801B4
:1002B800B9014908031D612962297829E830C0007D
:1002C8000330C1004108C3004008C2004308C5000C
:1002D8004208C4004508C7004408C600C8114811B0
:1002E800C8104810C901C90A4903031D7C297D2982
:1002F800932907303D026D3003193C02031C852900
:100308008629932904303F021A3003193E02031844
:100318008E298F2993290230DC005C08C90002303D
:100328004906031D98299929B12906303D02403014
:1003380003193C020318A129A229B12904303F025C
:100348001A3003193E020318AA29AB29B129033030
:10035800DC005C08C90022008E1703302000490623
:10036800031DB729B829CD2904303D021A300319D5
:100378003C020318C029C129CD2904303F021A3094
:1003880003193E020318C929CA29CD29C901220027
:100398008E138231E222803120001508DC00DD0155
:1003A8003808DF00DE015C085E04E0005D085F04D9
:1003B800E1006008B6006108B7000330490203187D
:1003C800E629E729112A1730DC005C088C04150897
:1003D800DC00DD013808DF00DE015C085E04E000B7
:1003E8005D085F04E10036086002E2003708613BFF
:1003F800E30003306302E83003196202031C052A94
:10040800062AEB29E8301502031C0B2A0C2AEB29D3
:10041800E830DC005C088C05D02A04304702B03094
:10042800031946020318192A1A2A1E2AB030C600D0
:100438000430C70004304502B030031944020318E1
:10044800262A272A2B2AB030C4000430C5000430DD
:100458004302B030031942020318332A342A382AD7
:10046800B030C2000430C30004304102B030031978
:1004780040020318402A412A452AB030C0000430FF
:10048800C1001730DC005C088C04CA2A1508DC009F
:10049800DD013808DF00DE015C085E04E0005D086D
:1004A8005F04E10036086002E2003708613BE300C0
:1004B80063084702031D622A620846020318652A78
:1004C800662A6A2AFE30DC005C088C051508DC0008
:1004D800DD013808DF00DE015C085E04E0005D082D
:1004E8005F04E10036086002E2003708613BE30080
:1004F80063084502031D822A620844020318852AFC
:10050800862A8A2AFD30DC005C088C051508DC0088
:10051800DD013808DF00DE015C085E04E0005D08EC
:100528005F04E10036086002E2003708613BE3003F
:1005380063084302031DA22A620842020318A52A7F
:10054800A62AAA2AFB30DC005C088C051508DC000A
:10055800DD013808DF00DE015C085E04E0005D08AC
:100568005F04E10036086002E2003708613BE300FF
:1005780063084102031DC22A620840020318C52A03
:10058800C62ACA2AEF30DC005C088C050C080F3933
:10059800031DCF2AD02A4A2A003039024E300319C7
:1005A8003802031CD82AD92AD02A14301502031C71
:1005B800DE2ADF2AD02A58298031E528A8302000F1
:1005C800DB005B08D100D23083315923823120000F
:1005D8005208AF005108AE00AA30DB005B08D1001A
:1005E800D23083315923823120005208AD0051089E
:1005F800AC00AC30DB005B08D100D230833159232A
:10060800823120005208AB005108AA00A830DB0054
:100618005B08D100323083315923823120005208DF
:10062800B5005108B400AA30DB005B08D1003230B5
:1006380083315923823120005208B3005108B20097
:10064800AC30DB005B08D100323083315923823172
:1006580020005208B1005108B0008330DB005B086D
:10066800D1003C3083315923823120005208A9003F
:100678005108A8008530DB005B08D1003C3083318D
:100688005923823120005208A7005108A60087305C
:10069800DB005B08D1003C308331592382312000D4
:1006A8005208A5005108A40008002000DA0084318F
:1006B800B224833120005A0884317924833184316B
:1006C8008E24833120004A084B0403196C2B6D2BB0
:1006D800702BD101D201CA2B51088431792483317E
:1006E80084318E24833120004A084B0403197D2B62
:1006F8007E2B7F2B6D2B8431A024833120005A0858
:10070800013884317924833184318E248331200067
:100718004A084B040319912B922B932B6D2B003015
:1007280084315624833120004B08D7004A08D6006C
:10073800013084315624833120004B08D9004A08FF
:10074800D8008431A92483313C3020005A0603198B
:10075800AE2BAF2BBD2B5908D4005808D300530833
:10076800D400D30156085304D10057085404D200CA
:10077800CA2B5708D4005608D3005308D400D30115
:1007880058085304D10059085404D20008002030F6
:100798002000CF004F08CC000F30D0005008CD000B
:1007A800D23084311F24833123302000CF004F08FA
:1007B800CC009030D0005008CD00D23084311F24B6
:1007C800833120302000CF004F08CC005730D000B4
:1007D8005008CD00323084311F248331233020006B
:1007E800CF004F08CC009030D0005008CD003230F8
:1007F80084311F2483312000CC011830CF004F08EA
:10080800CD003C3084311F2483312000CC01CC0A38
:100818008030CF004F08CD003C3084311F24833115
:1008280002302000CF004F08CC00CD013C3084318D
:100838001F24833108002000CE008431B224843183
:1008480020004E0884317924843184318E24843107
:1008580020004A084B040319322C332C342C552C15
:100868004C0884317924843184318E2484312000E9
:100878004A084B040319412C422C432C552C4D0893
:1008880084317924843184318E24843120004A08CB
:100898004B040319502C512C522C552C8431A9246B
:1008A800843108002000CE002400961596195D2C8E
:1008B8005E2C5A2C11082000CC00CD014C08CF002A
:1008C8004D08D00090114E0C2400031C96120318FA
:1008D80096161616161A712C722C6E2C2000901172
:1008E8005008CB004F08CA0008002000CA002400A6
:1008F800961120004A08240091001418842C852C95
:10090800812C200090112400951F8B2C8C2C8D2C71
:10091800951308002400161F922C932C9C2C8431CC
:10092800A924843101302000CA000030CB009F2C5C
:100938002000CA01CB010800240096149618A52CA3
:10094800A62CA22C200090110800240016151619B8
:10095800AE2CAF2CAB2C20009011080024001614EC
:100968001618B72CB82CB42C20009011080064007D
:0A09780080010131890BBC2C003412
:020000040001F9
:06000E00BC39FF3F9F3FDB
:00000001FF
