:020000040000FA
:040000008031EB2838
:100008007E1480310B1D09280A2810280130200091
:10001800B2070030B33D0B112000901C142815289E
:100028001A280130F2070030F33D90100B1C1D28F0
:100038001E28E9282700991D222823284D2820005A
:100048004F1C272828284228181008301702343057
:1000580003191602031831283228392817082100F5
:10006800AD00200016082100AC00F730F600760835
:1000780027009805971520004F104D281814960151
:100088009701F730F60076082700970598152000A5
:100098004F142700191E512852287D282000CF1CF4
:1000A80056285728702829001510EF30F6007608D2
:1000B8002700980517160930290014020318652827
:1000C80066286D2814082100AB00290013082100B8
:1000D800AA002000CF107D2827001816EF30F60060
:1000E80076089705290093019401930115142000BF
:1000F800CF142700991E81288228AC2820004F1D84
:1001080086288728A02829001C10DF30F6007608EA
:10011800270098059716093029001B02031895280F
:1001280096289D281B082000AF0029001A082000E7
:10013800AE0020004F11AC2827009816DF30F600DB
:100148007608970529009A019B011C1420004F1579
:100158002700191FB028B128E6282000CF1DB52890
:10016800B628DA289C13BF30F600760827009805D1
:100178001717003073020930031972020318C528D3
:10018800C628D72820001A08F600F7017208F900D7
:10019800F80176087804FA0077087904FB007A08F1
:1001A800AC007B08AD002000CF11E6282700181707
:1001B800BF30F6007608970520009A01F201F30196
:1001C8009C17CF15270099010B107E10090080316C
:1001D800ED28F001F101F201F301F401F5012030FD
:1001E800840000308500303087314127803121007C
:1001F800A801A901AA01AB01AC01AD017E10200044
:10020800813106298531792581312000CE012200EE
:100218008E13E8302000AE000330AF008531DA25B8
:10022800813187313A27813120004E08031D1D296D
:100238001E293429E830B4000330B5003508B7006A
:100248003408B6003708B9003608B8003908BB00CA
:100258003808BA00CF114F11CF104F10CE01CE0A77
:100268004E03031D38293929512907302D026D30D5
:1002780003192C02031C41294229512904302F0259
:100288001A3003192E0203184A294B295129023022
:100298002100A00020082000CE0002304E06031DD9
:1002A800562957296F2906302D02403003192C0290
:1002B80003185F2960296F2904302F021A300319A7
:1002C8002E020318682969296F2903302100A0002C
:1002D80020082000CE0003304E06031D742975291E
:1002E800882904302D021A3003192C0203187D299D
:1002F8007E29882904302F021A3003192E02031888
:10030800862987298829CE01843180248131873143
:10031800472781318731482781318631DF2681316E
:1003280020002F08B5002E08B4003508B70034089F
:10033800B6003708B9003608B8003908BB003808D5
:10034800BA0015082100A000A101200032082100F0
:10035800A300A20120082204A40021082304A50068
:1003680024082000B000210025082000B100033037
:100378004E020318C029C129F82917302100A0000E
:10038800200820008C04200015082100A000A101ED
:10039800200032082100A300A20120082204A400A2
:1003A80021082304A5002000300821002402A6000B
:1003B800200031082100253BA70003302702E83040
:1003C80003192602031CE929EA29C729E830200075
:1003D8001502031CF029F129C729E8302100A000E3
:1003E800200820008C05E92A04303B02B0300319AC
:1003F8003A020318002A012A052AB030BA0004304C
:10040800BB0004303902B0300319380203180D2A32
:100418000E2A122AB030B8000430B900043037026E
:10042800B0300319360203181A2A1B2A1F2AB030C3
:10043800B6000430B70004303502B0300319340276
:100448000318272A282A2C2AB030B4000430B50013
:1004580017302100A000200820008C04E32A15088A
:100468002100A000A101200032082100A300A20160
:1004780020082204A40021082304A5002000300835
:1004880021002402A600200031082100253BA700F6
:10049800270820003B02031D552A210026082000BA
:1004A8003A020318582A592A5F2AFE302100A00070
:1004B800200820008C0515082100A000A1012000BB
:1004C80032082100A300A20120082204A400210868
:1004D8002304A5002000300821002402A6002000E3
:1004E80031082100253BA700270820003902031DF9
:1004F800812A21002608200038020318842A852A28
:100508008B2AFD302100A000200820008C0515084A
:100518002100A000A101200032082100A300A201AF
:1005280020082204A40021082304A5002000300884
:1005380021002402A600200031082100253BA70045
:10054800270820003702031DAD2A210026082000B5
:1005580036020318B02AB12AB72AFB302100A000BE
:10056800200820008C0515082100A000A10120000A
:1005780032082100A300A20120082204A4002108B7
:100588002304A5002000300821002402A600200032
:1005980031082100253BA700270820003502031D4C
:1005A800D92A21002608200034020318DC2ADD2A73
:1005B800E32AEF302100A000200820008C050C0859
:1005C8001739031DE82AE92A332A003033024E304E
:1005D80003193202031CF12AF22AE92A14301502FF
:1005E800031CF72AF82AE92A15298031EB2800305C
:1005F8002000AB000030AA000030A9000030A8009D
:100608000030A7000030A6000030A5000030A4008C
:100618000030A3000030A2000030A1000030A0008C
:100628004F12E601E70184318024823187313A276D
:10063800823120006708803AE20080306202031DA0
:10064800272B65306602031C2A2B2B2B5F2B2000DF
:100658004608E2004708E3000030E31BFF30E400EF
:10066800E5006208A8076308A93D6408AA3D650873
:10067800AB3D4408E2004508E3000030E31BFF30CF
:10068800E400E5006208A4076308A53D6408A63DE8
:100698006508A73D4208E2004308E3000030E31B79
:1006A800FF30E400E5006208A0076308A13D640884
:1006B800A23D6508A33D32302000D0000030D100B3
:1006C8006708D3006608D2008631312682312000BF
:1006D80050085104031D712B722B7E2B031022002E
:1006E8008E1F03140318792B7C2B22008E177E2B68
:1006F80022008E130030200033022A300319320200
:10070800031C872B882B7E2B0130E6070030E73D42
:100718006708803AE20084306202031D952B4C3052
:100728006602031C982B992B172B00302000D3004E
:100738000030D2000330D100E830D0002B08D700B9
:100748002A08D6002908D5002808D4008331F023C8
:10075800823120005308AB005208AA005108A900B2
:100768005008A8000030D3000030D2000330D10078
:10077800E830D0002708D7002608D6002508D5007D
:100788002408D4008331F023823120005308A700C5
:100798005208A6005108A5005008A4000030D30054
:1007A8000030D2000330D100E830D0002308D70051
:1007B8002208D6002108D5002008D4008331F02370
:1007C800823120005308A3005208A2005108A1005A
:1007D8005008A0004F1608002000DA01D31FF52B9F
:1007E800F62B032CD009D109D209D309D00A031951
:1007F800D10A0319D20A0319D30ADA01DA0AD71F70
:10080800062C072C162CD409D509D609D709D40AE1
:100818000319D50A0319D60A0319D70A0130D800D3
:100828005808DA060030DE000030DD000030DC0059
:100838000030DB0053085204510450040319252CDE
:10084800262C672CD901D90A342C0130D035D10D8A
:10085800D20DD30D890B2A2C0130D8005808D9079E
:10086800D31F372C382C292C0130DB35DC0DDD0D5E
:10087800DE0D890B392C53085702031D4D2C5208E5
:100888005602031D4D2C51085502031D4D2C5008CE
:100898005402031C502C512C5A2C5008D4025108D5
:1008A800D53B5208D63B5308D73B5B140130D336AF
:1008B800D20CD10CD00C890B5B2C0130D902031D52
:1008C800662C672C382C5A0803196B2C6C2C772C47
:1008D800DB09DC09DD09DE09DB0A0319DC0A031977
:1008E800DD0A0319DE0A5E08D3005D08D2005C0841
:1008F800D1005B08D0000800A8302000E1006108A2
:10090800D700D23085310725843120005808C70028
:100918005708C600AA30E1006108D700D2308531F7
:100928000725843120005808C5005708C400AC309A
:10093800E1006108D700D2308531072584312000D5
:100948005808C3005708C200A830E1006108D70062
:10095800323085310725843120005808CD005708EA
:10096800CC00AA30E1006108D70032308531072574
:10097800843120005808CB005708CA00AC30E10089
:100988006108D700323085310725843120005808A6
:10099800C9005708C8008330E1006108D7003C301F
:1009A80085310725843120005808C1005708C00048
:1009B8008530E1006108D7003C3085310725843156
:1009C80020005808BF005708BE008730E1006108C2
:1009D800D7003C3085310725843120005808BD00F8
:1009E8005708BC004F1EF92CFA2C062D2808C60201
:1009F8002908C73B2408C4022508C53B2008C202B1
:100A08002108C33B08002000E000873128278531F2
:100A1800200060088631F826853187310D27853119
:100A280020005008510403191A2D1B2D1E2DD70123
:100A3800D801782D57088631F826853187310D275A
:100A4800853120005008510403192B2D2C2D2D2DF4
:100A58001B2D873131278531200060080138863108
:100A6800F826853187310D2785312000500851043B
:100A780003193F2D402D412D1B2D00308631BC26FA
:100A8800853120005108DD005008DC000130863136
:100A9800BC26853120005108DF005008DE00873170
:100AA8001F2785313C302000600603195C2D5D2D21
:100AB8006B2D5F08DA005E08D9005908DA00D90101
:100AC8005C085904D7005D085A04D800782D5D08E1
:100AD800DA005C08D9005908DA00D9015E0859041F
:100AE800D7005F085A04D800080021001908873980
:100AF80070389900FC3099051A1F832D842D802D9C
:100B08008B178B150B1790148B16783027009700CE
:100B18002100951295111508F839023895003F30D3
:100B280020009805303098043F3029009505303072
:100B380095043F309C0530309C0420009E011C0821
:100B48008F3930389C00F0309C059D170F309F007E
:100B5800240095161508F0390838950013309200CE
:100B680011303D009C0010309E000C303C00A1006C
:100B78000E30A00023008C0120308D008E01210052
:100B88008C0170308D0025000D160D17783021006E
:100B98008E001D141D0883392C389D00FC309E05DD
:100BA8001E088F3920389E009E170800203020002C
:100BB800E8006808D2000F30E9006908D300D23095
:100BC80086318526853123302000E8006808D20068
:100BD8009030E9006908D300D23086318526853106
:100BE80020302000E8006808D2005730E900690882
:100BF800D300323086318526853123302000E80045
:100C08006808D2009030E9006908D3003230863194
:100C1800852685312000D2011830E8006808D30005
:100C28003C308631852685312000D201D20A8030B9
:100C3800E8006808D3003C308631852685310230CB
:100C48002000E8006808D200D3013C3086318526B0
:100C580085318231FB22853108002000D601D31F5F
:100C6800362E372E3E2ED209D309D20A0319D30ABB
:100C7800D601D60AD11F412E422E472ED009D109BE
:100C8800D00A0319D10A5008510403194C2E4D2ECD
:100C9800762ED501D50A592E0130D035D10D890BC4
:100CA800512E0130D4005408D507D11F5C2E5D2E7B
:100CB800502E51085302031D632E50085202031C84
:100CC800662E672E6B2E5008D2025108D33B013096
:100CD800D136D00C890B6C2E0130D502031D752E30
:100CE800762E5D2E560803197A2E7B2E802ED20979
:100CF800D309D20A0319D30A5308D1005208D000E5
:100D080008002000D40087312827863120005408A5
:100D18008631F826863187310D2786312000500824
:100D280051040319982E992E9A2EBB2E52088631FB
:100D3800F826863187310D27863120005008510466
:100D48000319A72EA82EA92EBB2E53088631F826E4
:100D5800863187310D278631200050085104031948
:100D6800B62EB72EB82EBB2E87311F278631080026
:100D78002000D400240096159619C32EC42EC02E28
:100D880011082000D200D3015208D5005308D6001C
:100D98009011540C2400031C96120318961616166C
:100DA800161AD72ED82ED42E200090115608D1000E
:100DB8005508D000080021009D149D18E42EE52E4A
:100DC800E12E2000101321001C08F1001B08F00080
:100DD800033071022A30031970020318F42EF52E1D
:100DE800F72E22008E1708002000D000240096114C
:100DF80020005008240091001418032F042F002FFE
:100E0800200090112400951F0A2F0B2F0C2F9513EB
:100E180008002400161F112F122F1B2F87311F27A0
:100E2800873101302000D0000030D1001E2F200073
:100E3800D001D1010800240016151619242F252FDA
:100E4800212F2000901108002400161416182D2FA9
:100E58002E2F2A2F2000901108002400961496188F
:100E6800362F372F332F2000901108002000B201B1
:100E7800B3019501B201B30108006400800101319A
:0A0E8800890B422F00340800080017
:020000040001F9
:06000E00BC39FF3F9F3FDB
:00000001FF
