:020000040000FA
:040000008031E8283B
:100008007E1480310B1D09280A2810280130200091
:10001800AC070030AD3D0B112000901C14281528AA
:100028001A280130F2070030F33D90100B1C1D28F0
:100038001E28E6282700991D222823284A28200060
:10004800491C272828283F28181008301702343060
:100058000319160203183128322836281708F10028
:100068001608F000F730F60076082700980597156F
:10007800200049104A28181496019701F730F60015
:100088007608270097059815200049142700191E9F
:100098004E284F287A282000C91C532854286D2838
:1000A80029001510EF30F600760827009805171676
:1000B8000930290014020318622863286A281408E2
:1000C8002000A900290013082000A8002000C9105A
:1000D8007A2827001816EF30F600760897052900C9
:1000E80093019401930115142000C9142700991E47
:1000F8007E287F28A9282000491D832884289D2838
:1001080029001C10DF30F60076082700980597169E
:10011800093029001B020318922893289A281B08E3
:100128002000A70029001A082000A6002000491175
:10013800A92827009816DF30F600760897052900C9
:100148009A019B011C14200049152700191FAD288E
:10015800AE28E3282000C91DB228B328D7289C134D
:10016800BF30F6007608270098051717003073028D
:100178000930031972020318C228C328D4282000A2
:100188001A08F600F7017208F900F80176087804F1
:10019800FA0077087904FB007A08A4007B08A50018
:1001A8002000C911E32827001817BF30F600760889
:1001B800970520009A01F201F3019C17C915270041
:1001C80099010B107E1009008031EA28F001F10135
:1001D800F201F301F401F5012030840000308500BC
:1001E8002A308431A52480317E1020008031FC28FB
:1001F8008331612380318331B5238031033020007E
:10020800DC005C08C80022008E13D0302000A60055
:100218000730A700C9114911C9104910AC01AD0137
:100228009501AC01AD014808031D1B291C29322981
:10023800E830AE000330AF002F08B1002E08B00040
:100248003108B3003008B2003308B5003208B400F2
:10025800C9114911C9104910C801C80A4803031D2A
:10026800362937294D29073025026D300319240214
:10027800031C3F2940294D29043027021A3003194D
:1002880026020318482949294D290230DC005C0858
:10029800C80002304806031D522953296B2906302D
:1002A800250240300319240203185B295C296B29B5
:1002B800043027021A300319260203186429652915
:1002C8006B290330DC005C08C80022008E1703305D
:1002D80020004806031D7129722987290430250248
:1002E8001A300319240203187A297B298729043034
:1002F80027021A300319260203188329842987291B
:10030800C80122008E13823178228031200027080C
:10031800AF002608AE002F08B1002E08B000310843
:10032800B3003008B2003308B5003208B40015082D
:10033800DC00DD012C08DF00DE015C085E04E00063
:100348005D085F04E1006008AA006108AB000330A3
:1003580048020318B029B129DB291730DC005C08F2
:100368008C041508DC00DD012C08DF00DE015C08C8
:100378005E04E0005D085F04E1002A086002E20014
:100388002B08613BE30003306302E8300319620283
:10039800031CCF29D029B529E8301502031CD5291B
:1003A800D629B529E830DC005C088C05662A1730A8
:1003B800DC005C088C04602A1508DC00DD012C08D0
:1003C800DF00DE015C085E04E0005D085F04E10018
:1003D8002A086002E2002B08613BE300630835024B
:1003E800031DF829620834020318FB29FC29002A96
:1003F800FE30DC005C088C051508DC00DD012C08EB
:10040800DF00DE015C085E04E0005D085F04E100D7
:100418002A086002E2002B08613BE300630833020C
:10042800031D182A6208320203181B2A1C2A202AD4
:10043800FD30DC005C088C051508DC00DD012C08AB
:10044800DF00DE015C085E04E0005D085F04E10097
:100458002A086002E2002B08613BE30063083102CE
:10046800031D382A6208300203183B2A3C2A402A16
:10047800FB30DC005C088C051508DC00DD012C086D
:10048800DF00DE015C085E04E0005D085F04E10057
:100498002A086002E2002B08613BE30063082F0290
:1004A800031D582A62082E0203185B2A5C2A602A58
:1004B800EF30DC005C088C050C081739031D652A31
:1004C800662AE02900302D024E3003192C02031C45
:1004D8006E2A6F2A662A14301502031C742A752A9C
:1004E800662A12298031E828A8302000DB005B0842
:1004F800D100D2308231EF22823120005208C1006F
:100508005108C000AA30DB005B08D100D23082312C
:10051800EF22823120005208BF005108BE00AC30E3
:10052800DB005B08D100D2308231EF22823120001B
:100538005208BD005108BC00A830DB005B08D100A0
:1005480032308231EF22823120005208C700510830
:10055800C600AA30DB005B08D10032308231EF22BE
:10056800823120005208C5005108C400AC30DB00BD
:100578005B08D10032308231EF22823120005208EC
:10058800C3005108C2008330DB005B08D1003C3057
:100598008231EF22823120005208BB005108BA0094
:1005A8008530DB005B08D1003C308231EF2282319C
:1005B80020005208B9005108B8008730DB005B08FA
:1005C800D1003C308231EF22823120005208B7003E
:1005D8005108B60008002000DA0084319C248231DA
:1005E80020005A088431632482318431782482318E
:1005F80020004A084B040319022B032B062BD101B8
:10060800D201602B510884316324823184317824EB
:10061800823120004A084B040319132B142B152B85
:10062800032B84318A24823120005A08013884310E
:100638006324823184317824823120004A084B04B3
:100648000319272B282B292B032B00308431402416
:10065800823120004B08D7004A08D6000130843187
:100668004024823120004B08D9004A08D800843140
:10067800932482313C3020005A060319442B452B21
:10068800532B5908D4005808D3005308D400D30179
:1006980056085304D10057085404D200602B570859
:1006A800D4005608D3005308D400D3015808530483
:1006B800D10059085404D2000800210019088739CC
:1006C80070389900FC3099051A1F6B2B6C2B682B1E
:1006D8008B178B150B1790148B1678302700970003
:1006E8002100951295111508F839023895003F3008
:1006F80020009805303098043F30290095053030A7
:1007080095043F309C0530309C0420009E011C0855
:100718008F3930389C00F0309C059D170F309F00B2
:10072800240095161508F039083895001330920002
:1007380011303D009C0010309E000C303C00A100A0
:100748000E30A00023008C018D018E0121008C0148
:1007580050308D0025000D160D17783021008E00C1
:10076800080020302000CF004F08CC000F30D00008
:100778005008CD00D2308431092483312330200041
:10078800CF004F08CC009030D0005008CD00D230B8
:1007980084310924833120302000CF004F08CC0059
:1007A8005730D0005008CD003230843109248331CD
:1007B80023302000CF004F08CC009030D0005008E4
:1007C800CD0032308431092483312000CC01183027
:1007D800CF004F08CD003C308431092483312000FC
:1007E800CC01CC0A8030CF004F08CD003C3084319A
:1007F8000924833102302000CF004F08CC00CD01FE
:100808003C3084310924833108002000CE00843133
:100818009C24843120004E0884316324843184313F
:100828007824843120004A084B0403191C2C1D2C01
:100838001E2C3F2C4C088431632484318431782465
:10084800843120004A084B0403192B2C2C2C2D2C06
:100858003F2C4D08843163248431843178248431D9
:1008680020004A084B0403193A2C3B2C3C2C3F2C03
:1008780084319324843108002000CE00240096158A
:100888009619472C482C442C11082000CC00CD0187
:100898004C08CF004D08D00090114E0C2400031CCA
:1008A8009612031896161616161A5B2C5C2C582CE2
:1008B800200090115008CB004F08CA000800200003
:1008C800CA002400961120004A0824009100141838
:1008D8006E2C6F2C6B2C200090112400951F752C0A
:1008E800762C772C951308002400161F7C2C7D2C61
:1008F800862C84319324843101302000CA000030D2
:10090800CB00892C2000CA01CB01080024009614D2
:1009180096188F2C902C8C2C200090110800240005
:1009280016151619982C992C952C20009011080052
:10093800240016141618A12CA22C9E2C200090110D
:0E0948000800640080010131890BA62C0034E8
:020000040001F9
:06000E00BC39FF3F9F3FDB
:00000001FF
