:020000040000FA
:040000008031E8283B
:100008007E1480310B1D09280A2810280130200091
:10001800AA070030AB3D0B112000901C14281528AE
:100028001A280130F2070030F33D90100B1C1D28F0
:100038001E28E6282700991D222823284A28200060
:10004800471C272828283F28181008301702343062
:100058000319160203183128322836281708F10028
:100068001608F000F730F60076082700980597156F
:10007800200047104A28181496019701F730F60017
:100088007608270097059815200047142700191EA1
:100098004E284F287A282000C71C532854286D283A
:1000A80029001510EF30F600760827009805171676
:1000B8000930290014020318622863286A281408E2
:1000C8002000A700290013082000A6002000C71060
:1000D8007A2827001816EF30F600760897052900C9
:1000E80093019401930115142000C7142700991E49
:1000F8007E287F28A9282000471D832884289D283A
:1001080029001C10DF30F60076082700980597169E
:10011800093029001B020318922893289A281B08E3
:100128002000A50029001A082000A400200047117B
:10013800A92827009816DF30F600760897052900C9
:100148009A019B011C14200047152700191FAD2890
:10015800AE28E3282000C71DB228B328D7289C134F
:10016800BF30F6007608270098051717003073028D
:100178000930031972020318C228C328D4282000A2
:100188001A08F600F7017208F900F80176087804F1
:10019800FA0077087904FB007A08A2007B08A3001C
:1001A8002000C711E32827001817BF30F60076088B
:1001B800970520009A01F201F3019C17C715270043
:1001C80099010B107E1009008031EA28F001F10135
:1001D800F201F301F401F5012030840000308500BC
:1001E80028308431F92480317E1020008031FC28A9
:1001F8008331972380318331F82380312000C60171
:1002080022008E13E8302000A4000330A500AA01C4
:10021800AB019501AA01AB014608031D1429152954
:100228002B29E830AC000330AD002D08AF002C08B6
:10023800AE002F08B1002E08B0003108B300300816
:10024800B200C7114711C7104710C601C60A4603B6
:10025800031D2F2930294629073023026D30031941
:100268002202031C382939294629043025021A306C
:100278000319240203184129422946290230DA00C9
:100288005A08C60002304606031D4B294C2964292A
:100298000630230240300319220203185429552935
:1002A8006429043025021A300319240203185D2931
:1002B8005E2964290330DA005A08C60022008E1726
:1002C800033020004606031D6A296B298029043063
:1002D80023021A300319220203187329742980296A
:1002E800043025021A300319240203187C297D29B9
:1002F8008029C60122008E138231AE2280318431DA
:10030800FF2480318531002580318431CD2480312E
:1003180020002508AD002408AC002D08AF002C08EB
:10032800AE002F08B1002E08B0003108B300300825
:10033800B2001508DA00DB012A08DD00DC015A08E2
:100348005C04DE005B085D04DF005E08A8005F084F
:10035800A900033046020318B229B329DD29173052
:10036800DA005A088C041508DA00DB012A08DD00D7
:10037800DC015A085C04DE005B085D04DF00280825
:100388005E02E00029085F3BE10003306102E830CB
:1003980003196002031CD129D229B729E8301502B4
:1003A800031CD729D829B729E830DA005A088C0560
:1003B8009C2A04303302B030031932020318E529AD
:1003C800E629EA29B030B2000430B3000430310223
:1003D800B030031930020318F229F329F729B03095
:1003E800B0000430B10004302F02B03003192E02DF
:1003F8000318FF29002A042AB030AE000430AF00E9
:1004080004302D02B03003192C0203180C2A0D2ACF
:10041800112AB030AC000430AD001730DA005A08A9
:100428008C04962A1508DA00DB012A08DD00DC01B5
:100438005A085C04DE005B085D04DF0028085E02E1
:10044800E00029085F3BE10061083302031D2E2A02
:10045800600832020318312A322A362AFE30DA00BE
:100468005A088C051508DA00DB012A08DD00DC01D2
:100478005A085C04DE005B085D04DF0028085E02A1
:10048800E00029085F3BE10061083102031D4E2AA4
:10049800600830020318512A522A562AFD30DA0021
:1004A8005A088C051508DA00DB012A08DD00DC0192
:1004B8005A085C04DE005B085D04DF0028085E0261
:1004C800E00029085F3BE10061082F02031D6E2A46
:1004D80060082E020318712A722A762AFB30DA0085
:1004E8005A088C051508DA00DB012A08DD00DC0152
:1004F8005A085C04DE005B085D04DF0028085E0221
:10050800E00029085F3BE10061082D02031D8E2AE7
:1005180060082C020318912A922A962AEF30DA00F2
:100528005A088C050C081739031D9B2A9C2A162A81
:1005380000302B024E3003192A02031CA42AA52AD4
:100548009C2A14301502031CAA2AAB2A9C2A0B29C0
:100558008031E828A8302000D9005908CF00D230CF
:1005680083312523823120005008BF004F08BE0088
:10057800AA30D9005908CF00D230833125238231DF
:1005880020005008BD004F08BC00AC30D900590805
:10059800CF00D23083312523823120005008BB00A0
:1005A8004F08BA00A830D9005908CF00323083313B
:1005B8002523823120005008C5004F08C400AA3006
:1005C800D9005908CF0032308331252382312000E9
:1005D8005008C3004F08C200AC30D9005908CF00FA
:1005E800323083312523823120005008C1004F0862
:1005F800C0008330D9005908CF003C30833125230F
:10060800823120005008B9004F08B8008530D90061
:100618005908CF003C30833125238231200050080F
:10062800B7004F08B6008730D9005908CF003C30D2
:1006380083312523823120005008B5004F08B400CB
:1006480008002000D8008431F024833120005808A5
:100658008431A62483318431BB24833120004808A7
:1006680049040319382B392B3C2BCF01D001962B89
:100678004F088431A62483318431BB248331200080
:10068800480849040319492B4A2B4B2B392B843131
:10069800DE2483312000580801388431A6248331B0
:1006A8008431BB24833120004808490403195D2B99
:1006B8005E2B5F2B392B003084318324833120005B
:1006C8004908D5004808D400013084318324833197
:1006D80020004908D7004808D6008431E724833130
:1006E8003C302000580603197A2B7B2B892B57089E
:1006F800D2005608D1005108D200D1015408510443
:10070800CF0055085204D000962B5508D200540843
:10071800D1005108D200D10156085104CF00570822
:100728005204D00008002100190887397038990050
:10073800FC3099051A1FA12BA22B9E2B8B178B150A
:100748000B1790148B16783027009700210095120C
:1007580095111508F839023895003F3020009805A2
:10076800303098043F3029009505303095043F30EB
:100778009C0530309C0420009E011C088F393038BD
:100788009C00F0309C059D170F309F0024009516A3
:100798001508F039083895001330920011303D00E3
:1007A8009C0010309E000C303C00A1000E30A000D0
:1007B80023008C0120308D008E0121008C017030C7
:1007C8008D0025000D160D17783021008E001D14A0
:1007D8001D0883392C389D00FC309E051E088F3972
:1007E80020389E009E17080020302000CD004D08BC
:1007F800CA000F30CE004E08CB00D23084314C24D2
:10080800833123302000CD004D08CA009030CE003F
:100818004E08CB00D23084314C2483312030200064
:10082800CD004D08CA005730CE004E08CB003230FC
:1008380084314C24833123302000CD004D08CA0078
:100848009030CE004E08CB00323084314C248331B6
:100858002000CA011830CD004D08CB003C3084314F
:100868004C2483312000CA01CA0A8030CD004D08CB
:10087800CB003C3084314C24833102302000CD0041
:100888004D08CA00CB013C3084314C248331080028
:100898002000CC008431F024843120004C088431BD
:1008A800A62484318431BB248431200048084904BB
:1008B80003195F2C602C612C822C4A088431A624F1
:1008C80084318431BB248431200048084904031949
:1008D8006E2C6F2C702C822C4B088431A62484310A
:1008E8008431BB24843120004808490403197D2C35
:1008F8007E2C7F2C822C8431E72484310800200050
:10090800CC002400961596198A2C8B2C872C11085C
:100918002000CA00CB014A08CD004B08CE00901138
:100928004C0C2400031C9612031896161616161A59
:100938009E2C9F2C9B2C200090114E08C9004D081E
:10094800C80008002000C8002400961120004808AC
:10095800240091001418B12CB22CAE2C2000901158
:100968002400951FB82CB92CBA2C95130800240024
:10097800161FBF2CC02CC92C8431E72484310130C8
:100988002000C8000030C900CC2C2000C801C901D3
:10099800080021009D149D18D22CD32CCF2C2000A8
:1009A800101321001C082000A10021001B082000B2
:1009B800A0000800240096149618E32CE42CE02CE0
:1009C800200090110800240016151619EC2CED2CA7
:1009D800E92C200090110800240016141618F52C94
:1009E800F62CF22C200090110800640080010131DF
:0A09F800890BFA2C003408000800F7
:020000040001F9
:06000E00BC39FF3F9F3FDB
:00000001FF
