:020000040000FA
:040000008031E8283B
:100008007E1480310B1D09280A2810280130200091
:10001800C4070030C53D0B112000901C142815287A
:100028001A280130F2070030F33D90100B1C1D28F0
:100038001E28E6282700991D222823284A28200060
:10004800491C272828283F28181008301702343060
:100058000319160203183128322836281708F10028
:100068001608F000F730F60076082700980597156F
:10007800200049104A28181496019701F730F60015
:100088007608270097059815200049142700191E9F
:100098004E284F287A282000C91C532854286D2838
:1000A80029001510EF30F600760827009805171676
:1000B8000930290014020318622863286A281408E2
:1000C8002000A500290013082000A4002000C91062
:1000D8007A2827001816EF30F600760897052900C9
:1000E80093019401930115142000C9142700991E47
:1000F8007E287F28A9282000491D832884289D2838
:1001080029001C10DF30F60076082700980597169E
:10011800093029001B020318922893289A281B08E3
:100128002000C70029001A082000C6002000491135
:10013800A92827009816DF30F600760897052900C9
:100148009A019B011C14200049152700191FAD288E
:10015800AE28E3282000C91DB228B328D7289C134D
:10016800BF30F6007608270098051717003073028D
:100178000930031972020318C228C328D4282000A2
:100188001A08F600F7017208F900F80176087804F1
:10019800FA0077087904FB007A08C2007B08C300DC
:1001A8002000C911E32827001817BF30F600760889
:1001B800970520009A01F201F3019C17C915270041
:1001C80099010B107E1009008031EA28F001F10135
:1001D800F201F301F401F5012030840000308500BC
:1001E8002A308431D22480317E1020008031FC28CE
:1001F80083318E2380318331E22380312000C8018E
:1002080022008E13E8302000C6000330C700C40166
:10021800C5019501C401C5014808031D1429152904
:100228002B29E830B8000330B9003908BB0038087A
:10023800BA003B08BD003A08BC003D08BF003C08B6
:10024800BE00C9114911C9104910C801C80A48039C
:10025800031D2F2930294629073043026D30031921
:100268004202031C382939294629043047021A302A
:100278000319460203184129422946290230DC00A5
:100288005C08C80002304806031D4B294C29642924
:1002980006304302403003194202031854295529F5
:1002A8006429043047021A300319460203185D29ED
:1002B8005E2964290330DC005C08C80022008E1720
:1002C800033020004806031D6A296B298029043061
:1002D80043021A300319420203187329742980292A
:1002E800043047021A300319460203187C297D2975
:1002F8008029C80122008E138231A5228031200076
:100308004708B9004608B8003908BB003808BA00E1
:100318003B08BD003A08BC003D08BF003C08BE00D1
:100328001508DC00DD014408DF00DE015C085E041E
:10033800E0005D085F04E1006008C0006108C100DA
:10034800033048020318A929AA29D4291730DC0048
:100358005C088C041508DC00DD014408DF00DE01C0
:100368005C085E04E0005D085F04E100400860028C
:10037800E2004108613BE30003306302E8300319FF
:100388006202031CC829C929AE29E8301502031CDA
:10039800CE29CF29AE29E830DC005C088C05932AE9
:1003A80004303F02B03003193E020318DC29DD296E
:1003B800E129B030BE000430BF0004303D02B03047
:1003C80003193C020318E929EA29EE29B030BC00D8
:1003D8000430BD0004303B02B03003193A02031860
:1003E800F629F729FB29B030BA000430BB000430E5
:1003F8003902B030031938020318032A042A082ADC
:10040800B030B8000430B9001730DC005C088C0448
:100418008D2A1508DC00DD014408DF00DE015C08D8
:100428005E04E0005D085F04E10040086002E2004D
:100438004108613BE30063083F02031D252A620867
:100448003E020318282A292A2D2AFE30DC005C08DF
:100458008C051508DC00DD014408DF00DE015C08BE
:100468005E04E0005D085F04E10040086002E2000D
:100478004108613BE30063083D02031D452A620809
:100488003C020318482A492A4D2AFD30DC005C0842
:100498008C051508DC00DD014408DF00DE015C087E
:1004A8005E04E0005D085F04E10040086002E200CD
:1004B8004108613BE30063083B02031D652A6208AB
:1004C8003A020318682A692A6D2AFB30DC005C08A6
:1004D8008C051508DC00DD014408DF00DE015C083E
:1004E8005E04E0005D085F04E10040086002E2008D
:1004F8004108613BE30063083902031D852A62084D
:1005080038020318882A892A8D2AEF30DC005C0813
:100518008C050C081739031D922A932A0D2A0030DE
:1005280045024E3003194402031C9B2A9C2A932A35
:1005380014301502031CA12AA22A932A0B29803100
:10054800E828A8302000DB005B08D100D2308331D6
:100558001C23823120005208B1005108B000AA3093
:10056800DB005B08D100D23083311C2382312000AC
:100578005208AF005108AE00AC30DB005B08D10078
:10058800D23083311C23823120005208AD0051083B
:10059800AC00A830DB005B08D100323083311C236B
:1005A800823120005208B7005108B600AA30DB009B
:1005B8005B08D100323083311C238231200052087D
:1005C800B5005108B400AC30DB005B08D100323014
:1005D80083311C23823120005208B3005108B20035
:1005E8008330DB005B08D1003C3083311C2382312F
:1005F80020005208AB005108AA008530DB005B08D8
:10060800D1003C3083311C23823120005208A900DC
:100618005108A8008730DB005B08D1003C308331EB
:100628001C23823120005208A7005108A6000800A8
:100638002000DA008431C924833120005A0884312B
:10064800902483318431A524833120004A084B0447
:1006580003192F2B302B332BD101D2018D2B5108AD
:100668008431902483318431A524833120004A08C1
:100678004B040319402B412B422B302B8431B724D8
:10068800833120005A080138843190248331843121
:10069800A524833120004A084B040319542B552BF9
:1006A800562B302B003084316D24833120004B08C9
:1006B800D7004A08D600013084316D2483312000E8
:1006C8004B08D9004A08D8008431C02483313C3013
:1006D80020005A060319712B722B802B5908D4005D
:1006E8005808D3005308D400D30156085304D10046
:1006F80057085404D2008D2B5708D4005608D3004D
:100708005308D400D30158085304D100590854049D
:10071800D200080021001908873970389900FC3088
:1007280099051A1F982B992B952B8B178B150B173F
:1007380090148B1678302700970021009512951198
:100748001508F839023895003F30200098053030F8
:1007580098043F3029009505303095043F309C05BA
:1007680030309C0420009E011C088F3930389C00D2
:10077800F0309C059D170F309F0024009516150832
:10078800F039083895001330920011303D009C0074
:1007980010309E000C303C00A1000E30A000230059
:1007A8008C018D018E0121008C0150308D002500B7
:1007B8000D160D17783021008E000800203020001B
:1007C800CF004F08CC000F30D0005008CD00D230F9
:1007D80084313624833123302000CF004F08CC00E9
:1007E8009030D0005008CD00D23084313624833187
:1007F80020302000CF004F08CC005730D0005008E0
:10080800CD00323084313624833123302000CF00AC
:100818004F08CC009030D0005008CD0032308431E1
:10082800362483312000CC011830CF004F08CD008A
:100838003C308431362483312000CC01CC0A80300E
:10084800CF004F08CD003C3084313624833102304C
:100858002000CF004F08CC00CD013C308431362435
:10086800833108002000CE008431C924843120005F
:100878004E088431902484318431A52484312000A9
:100888004A084B040319492C4A2C4B2C6C2C4C0855
:100898008431902484318431A524843120004A088D
:1008A8004B040319582C592C5A2C6C2C4D088431A4
:1008B800902484318431A524843120004A084B04D3
:1008C8000319672C682C692C6C2C8431C024843162
:1008D80008002000CE00240096159619742C752C5B
:1008E800712C11082000CC00CD014C08CF004D0818
:1008F800D00090114E0C2400031C96120318961673
:100908001616161A882C892C852C20009011500850
:10091800CB004F08CA0008002000CA002400961126
:1009280020004A082400910014189B2C9C2C982C19
:10093800200090112400951FA22CA32CA42C951301
:1009480008002400161FA92CAA2CB32C8431C0241B
:10095800843101302000CA000030CB00B62C2000C2
:10096800CA01CB010800240096149618BC2CBD2C93
:10097800B92C200090110800240016151619C52C52
:10098800C62CC22C2000901108002400161416183A
:10099800CE2CCF2CCB2C20009011080064008001B5
:0809A8000131890BD32C00344E
:020000040001F9
:06000E00BC39FF3F9F3FDB
:00000001FF
