:020000040000FA
:040000008031E8283B
:100008007E1480310B1D09280A2810280130200091
:10001800AC070030AD3D0B112000901C14281528AA
:100028001A280130F2070030F33D90100B1C1D28F0
:100038001E28E6282700991D222823284A28200060
:10004800491C272828283F28181008301702343060
:100058000319160203183128322836281708A90070
:100068001608A800F730F6007608270098059715B7
:10007800200049104A28181496019701F730F60015
:100088007608270097059815200049142700191E9F
:100098004E284F287A282000C91C532854286D2838
:1000A80029001510EF30F600760827009805171676
:1000B8000930290014020318622863286A281408E2
:1000C8002000A700290013082000A6002000C9105E
:1000D8007A2827001816EF30F600760897052900C9
:1000E80093019401930115142000C9142700991E47
:1000F8007E287F28A9282000491D832884289D2838
:1001080029001C10DF30F60076082700980597169E
:10011800093029001B020318922893289A281B08E3
:100128002000A50029001A082000A4002000491179
:10013800A92827009816DF30F600760897052900C9
:100148009A019B011C14200049152700191FAD288E
:10015800AE28E3282000C91DB228B328D7289C134D
:10016800BF30F6007608270098051717003073028D
:100178000930031972020318C228C328D4282000A2
:100188001A08F600F7017208F900F80176087804F1
:10019800FA0077087904FB007A08A2007B08A3001C
:1001A8002000C911E32827001817BF30F600760889
:1001B800970520009A01F201F3019C17C915270041
:1001C80099010B107E1009008031EA28F001F10135
:1001D800F201F301F401F5012030840000308500BC
:1001E8002A308531022580317E1020008031FC289C
:1001F8008331912380318331F22380312000C8017B
:1002080022008E13E8302000A4000330A5008431BA
:10021800FB24803120004808031D132914292A29AA
:10022800E830AE000330AF002F08B1002E08B00050
:100238003108B3003008B2003308B5003208B40002
:10024800C9114911C9104910C801C80A4803031D3A
:100258002E292F294529073023026D300319220240
:10026800031C372938294529043025021A30031977
:10027800240203184029412945290230DC005C0882
:10028800C80002304806031D4A294B296129063057
:1002980023024030031922020318532954296129E3
:1002A800043025021A300319240203185C295D2939
:1002B80061290330DC005C08C80003304806031DD0
:1002C800662967297A29043023021A300319220281
:1002D80003186F2970297A29043025021A30031966
:1002E80024020318782979297A29C8018231A82299
:1002F8008031853108258031853109258031843167
:10030800A024803120002508AF002408AE002F0863
:10031800B1002E08B0003108B3003008B20033082D
:10032800B5003208B4001508DC00DD012C08DF0038
:10033800DE015C085E04E0005D085F04E10060081F
:10034800AA006108AB00033048020318AC29AD29A4
:10035800D7291730DC005C088C041508DC00DD01A7
:100368002C08DF00DE015C085E04E0005D085F0425
:10037800E1002A086002E2002B08613BE300033039
:100388006302E83003196202031CCB29CC29B12986
:10039800E8301502031CD129D229B129E830DC0044
:1003A8005C088C05962A04303502B03003193402F3
:1003B8000318DF29E029E429B030B4000430B5007F
:1003C80004303302B030031932020318EC29ED2946
:1003D800F129B030B2000430B30004303102B0303B
:1003E800031930020318F929FA29FE29B030B000A0
:1003F8000430B10004302F02B03003192E02031864
:10040800062A072A0B2AB030AE000430AF00173096
:10041800DC005C088C04902A1508DC00DD012C083F
:10042800DF00DE015C085E04E0005D085F04E100B7
:100438002A086002E2002B08613BE30063083502EA
:10044800031D282A6208340203182B2A2C2A302A72
:10045800FE30DC005C088C051508DC00DD012C088A
:10046800DF00DE015C085E04E0005D085F04E10077
:100478002A086002E2002B08613BE30063083302AC
:10048800031D482A6208320203184B2A4C2A502AB4
:10049800FD30DC005C088C051508DC00DD012C084B
:1004A800DF00DE015C085E04E0005D085F04E10037
:1004B8002A086002E2002B08613BE300630831026E
:1004C800031D682A6208300203186B2A6C2A702AF6
:1004D800FB30DC005C088C051508DC00DD012C080D
:1004E800DF00DE015C085E04E0005D085F04E100F7
:1004F8002A086002E2002B08613BE30063082F0230
:10050800031D882A62082E0203188B2A8C2A902A37
:10051800EF30DC005C088C050C081739031D952AA0
:10052800962A102A00302D024E3003192C02031C83
:100538009E2A9F2A962A14301502031CA42AA52A4B
:10054800962A0B298031E828A8302000DB005B08B8
:10055800D100D23083311F23823120005208C100DC
:100568005108C000AA30DB005B08D100D2308331CB
:100578001F23823120005208BF005108BE00AC3052
:10058800DB005B08D100D23083311F238231200089
:100598005208BD005108BC00A830DB005B08D10040
:1005A800323083311F23823120005208C70051089E
:1005B800C600AA30DB005B08D100323083311F232C
:1005C800823120005208C5005108C400AC30DB005D
:1005D8005B08D100323083311F238231200052085A
:1005E800C3005108C2008330DB005B08D1003C30F7
:1005F80083311F23823120005208BB005108BA0002
:100608008530DB005B08D1003C3083311F23823109
:1006180020005208B9005108B8008730DB005B0899
:10062800D1003C3083311F23823120005208B700AB
:100638005108B60008002000DA008431F224833122
:1006480020005A088431B92483318431CE2483317F
:1006580020004A084B040319322B332B362BD101C7
:10066800D201902B51088431B92483318431CE24AE
:10067800833120004A084B040319432B442B452B94
:10068800332B8431E024833120005A080138843127
:10069800B92483318431CE24833120004A084B04A5
:1006A8000319572B582B592B332B003084317D24B9
:1006B800833120004B08D7004A08D6000130843126
:1006C8007D24833120004B08D9004A08D8008431A2
:1006D800E92483313C3020005A060319742B752B0A
:1006E800832B5908D4005808D3005308D400D301E9
:1006F80056085304D10057085404D200902B5708C9
:10070800D4005608D3005308D400D3015808530422
:10071800D10059085404D20008002100190887396B
:1007280070389900FC3099051A1F9B2B9C2B982B2D
:100738008B178B150B1790148B16783027009700A2
:100748002100951295111508F839023895003F30A7
:1007580020009805303098043F3029009505303046
:1007680095043F309C0530309C0420009E011C08F5
:100778008F3930389C00F0309C059D170F309F0052
:10078800240095161508F0390838950013309200A2
:1007980011303D009C0010309E000C303C00A10040
:1007A8000E30A00023008C0120308D008E01210026
:1007B8008C0170308D0025000D160D177830210042
:1007C8008E001D141D0883392C389D00FC309E05B1
:1007D8001E088F3920389E009E1708002030200000
:1007E800CF004F08CC000F30D0005008CD00D230D9
:1007F80084314624833123302000CF004F08CC00B9
:100808009030D0005008CD00D23084314624833156
:1008180020302000CF004F08CC005730D0005008BF
:10082800CD00323084314624833123302000CF007C
:100838004F08CC009030D0005008CD0032308431C1
:10084800462483312000CC011830CF004F08CD005A
:100858003C308431462483312000CC01CC0A8030DE
:10086800CF004F08CD003C3084314624833102301C
:100878002000CF004F08CC00CD013C308431462405
:10088800833108002000CE008431F2248431200016
:100898004E088431B92484318431CE248431200037
:1008A8004A084B040319592C5A2C5B2C7C2C4C08F5
:1008B8008431B92484318431CE24843120004A081B
:1008C8004B040319682C692C6A2C7C2C4D08843144
:1008D800B92484318431CE24843120004A084B0461
:1008E8000319772C782C792C7C2C8431E9248431D9
:1008F80008002000CE00240096159619842C852C1B
:10090800812C11082000CC00CD014C08CF004D08E7
:10091800D00090114E0C2400031C96120318961652
:100928001616161A982C992C952C20009011500800
:10093800CB004F08CA00080021009D149D18A52C63
:10094800A62CA22C2000101321001C08F1001B0863
:10095800F000033071022A30031970020318B52C15
:10096800B62CB82C22008E1708002000CA002400DC
:10097800961120004A08240091001418C42CC52C94
:10098800C12C200090112400951FCB2CCC2CCD2CF1
:10099800951308002400161FD22CD32CDC2C84318C
:1009A800E924843101302000CA000030CB00DF2C5C
:1009B8002000CA01CB010800240096149618E52CE3
:1009C800E62CE22C200090110800240016151619B8
:1009D800EE2CEF2CEB2C20009011080024001614AC
:1009E8001618F72CF82CF42C200090110800200081
:1009F800AC01AD019501AC01AD01080064008001B6
:0C0A08000131890B032D003408000800A8
:020000040001F9
:06000E00BC39FF3F9F3FDB
:00000001FF
